:020000040800F2
:100000002005002001010008752500083D2000089A
:100010007125000825070008652C00080000000075
:10002000000000000000000000000000592C000843
:10003000E50A000800000000552C00085D2C0008AF
:100040001B0100081B0100081B0100081B01000820
:100050001B0100081B0100081B0100081B01000810
:100060001B0100081B0100081B0100081B01000800
:100070001B0100081B0100081B0100081B010008F0
:100080001B0100081B0100081B0100081B010008E0
:100090001B0100081B0100081B0100081B010008D0
:1000A0001B0100081B0100081B0100081B010008C0
:1000B0001B0100081B0100081B0100081B010008B0
:1000C0001B0100081B0100081B0100081B010008A0
:1000D0001B0100081B0100081B0100081B01000890
:1000E0001B0100081B0100081B010008DFF80CD0F1
:1000F00000F0E6FA00480047352F000820050020F0
:100100000648804706480047FEE7FEE7FEE7FEE7B1
:10011000FEE7FEE7FEE7FEE7FEE7FEE7612C0008EC
:10012000ED000008F0B480EA0102D40F4200B2EB07
:10013000410F02D20246084611464A0042D0C30D82
:10014000DDB2C1F3C752AD1A202D35DAC1F3160165
:1001500041F4000204B15242C5F1200602FA06F150
:100160002A411044B3EBD05F23D0C4B1012DA0EBE2
:10017000C35009DCF0BC4FF0004202EAC352DBB2CC
:1001800000F5000000F011BA400000F1807000EBB3
:10019000C350A0F1807040EAD170490009E04908DD
:1001A00041EAC071A0EBC35000F50000400800EB2D
:1001B000C350F0BC00F0F0B96142012202EB4101F2
:1001C000001BF6E7F0BC704781F00041AAE780F021
:1001D0000040A7E780EA010210B502F000434000AA
:1001E00022D04A001FD0010E01EB1261C0F356006D
:1001F000C2F3560240F4000042F40002A0FB0220C9
:1002000000047F39140400D0401C50EA124001D48D
:100210004000491EC2B20C0604EBD010401C40083E
:10022000802A02D003E0002010BD20F00100002948
:1002300000DA0020184310BD30B480EA010202F059
:10024000004530F0004221F0004013D090B1C30DC2
:10025000D40DC2F31601C0F31600E41A41F40001F4
:1002600040F400027D34914201D3641C00E0490057
:10027000002C02DA30BC002070474FF4000000234D
:10028000914201D3891A034340084FEA4101F7D153
:1002900051B1914202D14FF0004105E002D24FF03E
:1002A000010101E06FF0010103EBC450284430BCB0
:1002B00000F072B92DE9FE4F81EA030404F0004416
:1002C00021F0004100944FF0000B23F0004350EA6E
:1002D00001045ED052EA03045BD0C3F30A54C1F3B5
:1002E0000A552C44A4F2F3340194A0FB0254C1F348
:1002F000130141F48011C3F3130343F4801301FB92
:10030000024400FB034E840A970A44EA815447EAF8
:100310008357A4FB076802958D0A05FB07854FEA02
:10032000932C04FB0C542705029D4FEA065847EA1C
:100330001637B5EB08056EEB070C870E920E47EAF1
:10034000811742EA8312A7FB0201B6EB0B0164EBB3
:1003500000042B0D43EA0C335E1844EB1C50DA46C4
:100360005146E7FB0201C5F313044FEA0B3343EA9E
:1003700014534FEA0432019C43EA0603A4F10C042F
:100380000294009CCDE900B400F04CF903B0BDE844
:10039000F08F00200146F9E72DE9F04D81EA0304D2
:1003A00004F0004B21F0004514464FF0000A23F002
:1003B000004150EA050220D054EA01021DD0C5F3E5
:1003C0000A570246C5F31303C1F31300C1F30A56DB
:1003D00040F4801543F48013A7EB0608101BD646A3
:1003E00008F2FD3873EB050002D308F1010801E0C3
:1003F00092185B41B8F1000F03DA00200146BDE816
:10040000F08D00204FF48011064684460EE0171B45
:1004100073EB050705D3121B63EB050306434CEA98
:10042000010C49084FEA300092185B4150EA01077D
:10043000EDD152EA030012D082EA040083EA0501FA
:10044000084305D0101BAB4106D20122002306E071
:1004500000224FF0004302E06FF0010253101AEB4C
:1004600006004CEB085110EB0A0041EB0B01BDE814
:10047000F04D00F0C8B8002801DBC0F100400029B1
:1004800001DBC1F10041814201D801207047002009
:100490007047002801DBC0F10040002901DBC1F1F9
:1004A0000041814201D30120704700207047C10FF5
:1004B00080EAE0700844CA079623002100F075B86E
:1004C00096230022114600F070B80EB5C10F80EAE5
:1004D000E0700844CA07002140F233438DE80E0063
:1004E0000A460B4600F09EF803B000BD0EB540F280
:1004F000334102910021CDE900110A460B4600F07C
:1005000091F803B000BD00F0004220F00040C10DA2
:10051000C0F3160040F400007F2901DA0020704784
:10052000962903DCC1F19601C84001E09639884064
:10053000002AF4D04042704720F00040C10DC0F3C3
:10054000160040F400007F2901DA00207047962948
:1005500003DCC1F19601C840704796398840704766
:1005600001F0004330B421F0004150EA010206D00E
:100570000A0DA2F56072C1F31301002A02DC30BC3F
:1005800000207047440F44EAC104C100E01830BCA9
:1005900000EBC250AFF300800029A8BF7047401C99
:1005A000490008BF20F00100704710B4B0FA80FC89
:1005B00000FA0CF050EA010404BF10BC704749B1C6
:1005C000CCF1200421FA04F411FA0CF118BF012136
:1005D00021430843A3EB0C01CB1D4FEA00614FEA16
:1005E000102042BF002010BC704700EBC3501044E5
:1005F0000029A4BF10BC7047401C490008BF20F070
:10060000010010BC704710B5141E73F1000408DA25
:10061000401C41F1000192185B411A4301D120F0C6
:10062000010010BD2DE9F04D92469B4611B1B1FA83
:1006300081F202E0B0FA80F22032904600F052F8E7
:1006400004460F4640EA0A0041EA0B0153465A4667
:10065000084313D0114653EA010019D0C8F14002F3
:10066000504600F04EF805460E4650465946424662
:1006700000F038F8084305D0012004E02046394650
:10068000BDE8F08D0020054346EAE0762C43374371
:100690000A986305E40AA0EB08000022FD0A44EA78
:1006A00047540A3002D500200146E9E70105101938
:1006B0006941DDE9084500196941BDE8F04DA2E74F
:1006C000064C074D06E0E06840F0010394E807009F
:1006D00098471034AC42F6D3FFF70CFD5858000889
:1006E00078580008202A04DB203A00FA02F10020A2
:1006F00070479140C2F1200320FA03F31943904060
:100700007047202A04DB203A21FA02F000217047CA
:1007100021FA02F3D040C2F1200291400843194669
:1007200070470000FEE70000B0B584B020200090C4
:10073000002040F6000401900120C4F20104029060
:10074000032003906946204600F016FA2046202137
:1007500000F020FB90B100200546012000F0DEF9FA
:100760002046202100F016FB18B1C72D05F101002D
:10077000F2D3C62D02D9012004B0B0BD20462021FD
:1007800000F008FB10B1002004B0B0BD002000BF95
:100790000546012000F0C2F92046202100F0FAFAB7
:1007A00018B9EF2D05F10100F2D30020EE2D88BF1E
:1007B000012004B0B0BD0000F0B585B040F60004E3
:1007C000C4F2010420250126032701A92046019532
:1007D000CDE90266049700F0CFF9204620210022DF
:1007E00000F0DEFA40F2EE2000F098F920462021D9
:1007F000012200F0D5FA0F2000F090F9FFF794FFE6
:10080000CC2000F093F8442000F090F801A9204695
:10081000CDE90156CDE9036700F0AEF9204620216D
:10082000002200F0BDFA40F2EE2000F077F92046F9
:100830002021012200F0B4FA0F2000F06FF9FFF739
:1008400073FFCC2000F072F8BE2000F06FF800F0CB
:100850001FF8044600F01CF844EA002100F0F800FC
:1008600000244A42F82808BF91B2C3F6B074084683
:1008700004BF0024CBF6B074FFF727FE02460B46F8
:1008800000202146FFF716FDFFF76AFE05B0F0BD18
:100890002DE9F04F85B040F60004C4F201040125B3
:1008A0004FF0200A4FF0030B0DF1040800264FF023
:1008B000010900BF20464146CDE901A5CDE9035B12
:1008C00000F05AF920462021002200F069FA0220A7
:1008D00000F024F920462021012200F061FA0020D6
:1008E00002A981E8210820464146CDF804A000F085
:1008F00043F90C2000F012F92046202100F04AFABA
:10090000074600284FF0320018BF012700F006F913
:10091000C6F3460040EAC716B9F1080F09F101090C
:10092000C8D3304605B0BDE8F08F00002DE9F04394
:1009300085B007464FFA80F820200190012040F64C
:100940000004CDE902000320C4F20104049001A9CF
:10095000204600F011F920462021002207F0010571
:1009600000F01EFA02204FF00209002D08BF3C20C3
:1009700000F0D4F820462021012200F011FA3C209A
:100980003C26002D08BF022000F0C8F82046202198
:10099000002207F0020500F003FA0220002D08BF34
:1009A0003C2000F0BBF820462021012200F0F8F99D
:1009B0003C20002D08BF022000F0B0F82046202186
:1009C000002207F0040500F0EBF90220002D08BF1B
:1009D0003C2000F0A3F820462021012200F0E0F99D
:1009E0003C20002D08BF022000F098F8204620216E
:1009F000002207F0080500F0D3F90220002D08BFFF
:100A00003C2000F08BF820462021012200F0C8F99C
:100A10003C20002D08BF022000F080F82046202155
:100A2000002207F0100500F0BBF90220002D08BFDE
:100A30003C2000F073F820462021012200F0B0F99C
:100A40003C20002D08BF022000F068F8204620213D
:100A5000002207F0200500F0A3F90220002D08BFB6
:100A60003C2000F05BF820462021012200F098F99C
:100A70003C20002D08BF022000F050F82046202125
:100A8000002207F0400500F08BF90220002D08BF7E
:100A90003C2000F043F820462021012200F080F99C
:100AA0003C20002D08BF022000F038F8204620210D
:100AB000002200F075F9B8F1FF3FC8BF4FF03C09C4
:100AC000484600F02BF820462021012200F068F96A
:100AD000B8F1FF3FC8BF0226304600F01FF805B04E
:100AE000BDE8F08370470000EFF3108072B600BFDE
:100AF000FEE70000B0B5044600F058F9054640F2A4
:100B00000400C2F200000078611C18BF044400BF5A
:100B100000F04CF9401BA042FAD3B0BDB0B540F292
:100B20008C046FF00501C2F20004081A216885B236
:100B300020464D6200F086FF4FF6F970854213D8CB
:100B400020684FF6FA7100BF426A92B28A420BD215
:100B5000426A92B28A4207D2426A92B28A4203D26F
:100B6000426A92B28A42EFD340F28C00C2F2000095
:100B7000BDE8B04000F09ABF2DE9F04F82B00E689A
:100B8000002E00F0038140F20C4C41F200424FF67F
:100B9000FF7EC4F2010CC4F20102042700240123E9
:100BA000C1F2100E4FF0000A4FF00009904208BF4A
:100BB0000327009745E000BF012704F00C030F2234
:100BC0009A402BEA020207FA03F34FEA9A051A4306
:100BD00046F82520D1F804B040F20045C4F20105E2
:100BE0005FEACB322A6854BF22EA080242EA0802CE
:100BF0002A606A685FEA8B3354BF22EA080242EA3D
:100C000008026A605FEACB23AA6854BF22EA08029E
:100C100042EA08025FEA8B23AA60DCF800204FF06A
:100C2000010354BF22EA080242EA0802CCF800207D
:100C30000E680AF1010A36FA0AF204F1040400F01F
:100C4000A58003FA0AF816EA080FF1D04E68764537
:100C500012DC122E56D8DFE806F0350B4549555503
:100C600055555555555555555555554D510000BF80
:100C7000D1F80C9046E000BF4FF6FF72C1F221029E
:100C800096420FDC0022C1F2110296421AD00022D5
:100C9000C1F21202964215D00022C1F22102964200
:100CA00010D02FE00022C1F2220296420AD0002288
:100CB000C1F23102964205D00022C1F232029642C0
:100CC00020D100BF8A684AB1012A14BFC0F814803D
:100CD000C0F810804FF0080914E000BF4FF004097D
:100CE00010E000BFCA6802F108090BE04FF00009EC
:100CF00008E000BFCA6802F1040903E0CA6802F113
:100D00000C0900BF22460646BAF1080F24BF203A5C
:100D1000043637680F25954027EA050509FA02F2DF
:100D20002A433260CA79D2067FF582AF41F21803B6
:100D3000C4F202031A6842F001021A601A6802F053
:100D400001020192019A40F20042C4F20102A2F5AE
:100D50007E762AF0030256F802B040F60002C4F292
:100D60000102904210D040F60042C4F201029042CB
:100D70003FF422AF41F20002C4F20102009F904210
:100D800008BF022719E700BF002716E702B0BDE839
:100D9000F08F00008068084018BF012070470000F5
:100DA000002A08BF090401617047000040F21810D2
:100DB000C2F200000068704770B5B8B3044690F8FE
:100DC0003D0028B9002084F83C00204600F09EF940
:100DD000242084F83D002068016821F001010160B1
:100DE000016841F400410160016821F400410160A3
:100DF00000F042FB48F28041C0F21E0140F60013B1
:100E0000D4F804E088424FF00001C0F23D0348F2FC
:100E1000A16C4FF0000238BF01219842C0F2010CD2
:100E200038BF0122E64538BF0A460AB1012070BD2D
:100E30004DF68361C4F21B31A0FB01122168950CB1
:100E40004B684FF4967623F03F0343EA9243754391
:100E500044F6D3564B60C1F262060B6AA5FB0656F8
:100E6000B50923F03F03E64538BF950C6A1C1A43C9
:100E70000A62CA6948F2A0664CF6FF73C0F2010626
:100E8000B64522EA03020BD801384FEA4E03B0FB05
:100E9000F3F001306FF31F30042898BF04201EE0E8
:100EA000A368013863B119230EFB03F3B0FBF3F021
:100EB00001306FF31F3078B100F5804008E000BFCB
:100EC0000EEB4E03B0FBF3F001306FF31F3028B18F
:100ED00000F5004003E000BF012000E001201043C6
:100EE000C8610868D4E9072320F0C0001043184304
:100EF0000860886848F2FF3204F10C0690434CCE3B
:100F000018431043A5698860C86820F0FF0030438B
:100F10002843C860086840F00100086000202021D4
:100F2000206484F83D10206384F83E0070BD00000A
:100F30002DE9F04383B0994616460F460446FFF765
:100F400035FF94F83D1020291CD1054620688169A1
:100F5000890713D5FFF72AFF401B1928F6D900206F
:100F60002021206384F83D1084F83E00216C41F07C
:100F70002001216484F83C0004E000BF94F83C1098
:100F8000012903D1022003B0BDE8F083012284F8D7
:100F90003C200368DDE90B180A9ADB0703D10368DC
:100FA00043F001030360036823F40063036021201E
:100FB00084F83D00402084F83E00002020646262F6
:100FC0006185608D394620850020CFF6FF70E06294
:100FD000204632464B46CDF80080019501F030F8AE
:100FE00020B1012003B0BDE8F08300BF208D0028B0
:100FF00050D0206808F10106014651F8142F12065E
:101000002CD49EB1B8F1000F5AD000BF086840053B
:101010005ED4FFF7CBFE401B404556D82068014602
:1010200051F8142F1206F1D518E000BF0A685205D6
:101030004ED40A68120611D40A68520548D40A68C8
:1010400012060BD40A68520542D40A68120605D467
:101050000A6852053CD40A681206E7D5626A11464E
:1010600011F8013B0361238D6162591E2185678D53
:10107000013F678547697F070AD50F0408D051787B
:101080000161911C6162991E2185628D013A628520
:101090000904B1D1204641462A4601F00BF938BB7C
:1010A0002068016841F400710160202084F83D004F
:1010B000002084F83E0084F83C0003B0BDE8F083D3
:1010C0000868400504D4FFF771FE202004E000BF4B
:1010D0006FF480600860042000212022216384F8DE
:1010E0003D2084F83E10226C1043206484F83C10AC
:1010F000206C04287FF475AF2068016841F400710A
:101100000160012003B0BDE8F083000010B586B097
:1011100045F200410068C4F20001002288420492B6
:1011200002D006B010BD00BF41F21804C4F20204A0
:10113000206840F008002060206800F0080001905E
:101140000198C0200290122003900320059001F521
:10115000384002A9FFF710FD606840F4001060609D
:10116000606800F400100190019806B010BD000006
:1011700040F2040040F21811C2F20000C2F2000175
:1011800000780A68104408607047000080B542F299
:101190000000C4F20200016841F010010160032068
:1011A00000F07AF80F2000F005F800F027F8002092
:1011B00080BD000070B540F20406C2F2000640F2A5
:1011C00028013278C2F200014FF47A730968B3FB48
:1011D000F2F20446B1FBF2F1084600F04FFB0F2C8F
:1011E0004FF0010508D838B94FF0FF3021460022F2
:1011F000002500F025F87460284670BD82B041F2E9
:101200001800C4F202000168022241F001010160ED
:10121000016801F0010101910199416841F080519B
:101220004160406800F08050009000980420C4F2B3
:101230000100016862F31A61016002B070470000AA
:1012400010B54EF60C5CCEF2000CDCF80030C3F3A7
:10125000022E8EF00704042C28BF0424BEF10303E1
:101260004FF0FF3E0EFA04F438BF0023A14399402B
:101270000EFA03F39A43114300F00F0200F16043AA
:101280000901043A03F564436244002848BF02F1AF
:101290000C03197010BD00004EF60C51CEF2000187
:1012A0000A684FF6FF031A4060F30A2242F080609A
:1012B00040F0FD70086070472DE9F04381B00028D0
:1012C00000F0858042F20008C4F202080446D8F813
:1012D00000000D4600F0070088420CD2D8F800004C
:1012E00020F007002843C8F80000D8F8000000F0FC
:1012F0000700A8426BD1206841F204098107C4F2BB
:10130000020917D5410705D5D9F8001041F4E0616D
:10131000C9F80010010705D5D9F8001041F4605153
:10132000C9F80010D9F80010A26821F0F0011143AB
:10133000C9F80010C00741D1D8F8000000F007003C
:10134000A8420CD9D8F8000020F007002843C8F8BC
:101350000000D8F8000000F00700A84237D120684C
:10136000410707D5D9F80010E26821F4E061114384
:10137000C9F80010000708D5D9F80000216920F449
:10138000605040EAC100C9F80000D9F8002002F01E
:101390000C00082841F20020C0F27A0050D145F636
:1013A0004603C2F38341C0F60003595CD2033BD429
:1013B00040F60010C0F23D00484341E0606802285A
:1013C0000AD001282AD159F8041C890308D4012025
:1013D00001B0BDE8F08300BF59F8041C8901F6D5BF
:1013E000D9F8001021F003010843C9F80000FFF705
:1013F000DDFC064641F28837D9F80000616800F04C
:101400000C00B0EB810F97D0FFF7D0FC801BB842E7
:10141000F2D9032001B0BDE8F08300BF59F8041CE5
:101420008907D4D5DCE700BFD9F8002043F2404358
:10143000C2F34042C0F600039A5C4843B0FBF2F0AE
:10144000D9F8001043F24242C1F30311C0F6000282
:10145000515C40F2280220FA01F140F20800C2F289
:1014600000000068C2F200021160FFF7A3FE002036
:1014700001B0BDE8F083000040F2280041F2040111
:10148000C2F20000C4F202010068096843F252424D
:10149000C1F30221C0F60002515CC8407047000051
:1014A00040F2280041F20401C2F20000C4F202013D
:1014B0000068096843F25242C1F3C221C0F600023B
:1014C000515CC840704700002DE9F04182B000280F
:1014D00068D00446007841F20006C007C4F2020654
:1014E00025D0706800F00C0004281BD0706800F054
:1014F0000C00082802D17068C00313D4606800286B
:1015000000F06881B0F5A02F00F07C81B0F5803F3D
:1015100000F07C81306820F480303060306820F446
:10152000802076E13068800301D56068D0B32078F0
:10153000800718D5706810F00C0F07D0706800F0A5
:101540000C0008286ED17068C0036BD43068800727
:1015500002D52069012825D13068616920F0F800A2
:1015600040EAC1003060207800071FD4207840078F
:1015700032D4E56995B1706800F00C00082840F09D
:101580008F80012D0ED07068216A00F480328A426B
:1015900008D1616A00F47010884203D1002002B0C3
:1015A000BDE8F081012002B0BDE8F081A06900280B
:1015B00062D00020C4F242200121C0F88014FFF75D
:1015C000F5FB0546706A800700F18C80FFF7EEFBA3
:1015D000401B0228F6D92AE1F06910F0805808D1A2
:1015E000F06940F08050F061F06900F080500090A8
:1015F000009847F20007C4F200073868C00529D4F4
:10160000386840F480703860FFF7D0FB054600BFB3
:101610003868C0051ED4FFF7C9FB401B6428F7D902
:1016200005E100BF2069002840F20000C4F242201A
:1016300000F0828001210160FFF7B8FB054600BF82
:10164000306880073FF588AFFFF7B0FB401B0228EA
:10165000F6D9ECE0E068002800F08080052800F072
:101660009780012800F09880306A20F001003062F5
:10167000306A20F0040092E00020C4F242200021F1
:10168000C0F88014FFF792FB054600BF706A800720
:101690007FF56CAFFFF78AFB401B0228F6D9C6E046
:1016A0000027C4F2422700203866FFF77FFB022D97
:1016B00005460BD13068800140F1BE80FFF776FB14
:1016C000401B02284FF00300F4D968E7306880011E
:1016D0007FF564AFFFF76AFB401B02284FF0030061
:1016E000F4D95CE740F22800C2F20000006844F63A
:1016F000D351C1F26201A0FB0101480A019000BF71
:1017000000BF0198411E002801913FF42FAF00BF98
:101710000198411E002801913FF428AF00BF0198B5
:10172000411E002801913FF421AF00BF0198411EE6
:1017300000280191E4D119E700210160FFF736FB91
:10174000054600BF306880077FF50DAFFFF72EFB21
:10175000401B02284FF00300F4D920E7306A20F044
:1017600001003062306A20F004003062FFF71EFB97
:10177000054641F2883700BF306A800720D5FFF761
:1017800015FB401BB8424FF00300F5D907E700BF37
:10179000306A40F004003062306A40F0010030628C
:1017A000FFF704FB054641F2883700BF306A800727
:1017B00006D4FFF7FBFA401BB842F7D937E000BF69
:1017C000B8F1000F7FF4D5AEF06920F08050F061E1
:1017D000CFE600BF306820F480303060306820F4FD
:1017E00080203060FFF7E2FA054600BF30688003D2
:1017F0007FF59DAEFFF7DAFA401B64284FF0030037
:10180000F4D9CCE6306840F480203060306840F491
:1018100080303060FFF7CAFA054600BF30688003A9
:101820003FF585AEFFF7C2FA401B6428F6D90320C6
:1018300002B0BDE8F08100BF206AB0F5803F05D15D
:101840007168A26821F40031114371607168626AA5
:1018500021F4741111430843706001203866FFF7CA
:10186000A5FA0446306880013FF598AEFFF79EFA6E
:10187000001B02284FF00300F4D990E6411E00201F
:10188000B0EB116F1CBF012070474EF21002CEF278
:10189000000251604EF62351CEF20001F0230B708E
:1018A000072190601160704710B590F83C20012A24
:1018B0004FF0020233D080F83D200268D2F804E0F5
:1018C000D2F808C00C682EF07003234340F2FF7476
:1018D000C4F20004A24253600ADCB2F1804F13D07C
:1018E00040F20043C4F200039A420DD011E000BF61
:1018F00042F60043C4F201039A4205D040F60003C9
:10190000C4F200039A4204D149682CF080031943C1
:1019100091600121002280F83D1080F83C201046A3
:1019200010BD0000002804BF0120704710B5044618
:1019300090F83D0028B9002084F83C00204600F0D3
:1019400067F8022084F83D00206840F2FF730268C7
:10195000C4F2000342F6004C9842C4F2010C15DCBC
:10196000B0F1804F1AD040F20041C4F20001884229
:1019700014D0984218DCB0F1804F1DD040F20041E5
:10198000C4F20001884217D01AE000BF604505D0BC
:1019900040F60001C4F200018842EAD1A16822F0B9
:1019A00070020A439842E6DD604505D040F600012A
:1019B000C4F20001884203D1216922F440720A4333
:1019C000A36922F08001D4F804E0E268194360457D
:1019D0000160C262C0F828E002D16169CCF8301021
:1019E00001214161002084F8461084F83E1084F8FB
:1019F0003F1084F8401084F8411084F8421084F8B5
:101A0000431084F8441084F8451084F83D1010BD4C
:101A100081B0006842F60041C4F20101884201D061
:101A200001B0704741F21800C4F20200016841F4AD
:101A300000610160006800F400600090009801B04F
:101A40007047000090F83D1001291CBF012070472D
:101A5000022180F83D10006840F2FF71C4F20001DD
:101A6000884209DCB0F1804F12D040F20041C4F24C
:101A7000000188420CD012E042F60041C4F201019C
:101A8000884205D040F60001C4F20001884206D128
:101A9000816801F00701062904BF00207047016832
:101AA00041F001010160002070470000014600681C
:101AB00041F21113026A1A4204D00122002081F877
:101AC0003D207047026A40F244431A42F5D1026851
:101AD00022F0010202600122002081F83D207047BF
:101AE00080B590F83C20012A4FF0020200F0BF8040
:101AF00080F83D20D0F800C04FF67772DCF808304F
:101B000023EA0202CCF808200B683F2B1CDD5F2B78
:101B100020DD602B50D0B3F5005F6DD0702B40F00E
:101B2000A080D1E901E3C968DCF8082043EA0E038C
:101B300022F47F4243EA01211143CCF80810DCF87B
:101B4000081041F077018AE01F2B29DC63B3102BCA
:101B50002AD086E0402B63D0502B40F08280D1F811
:101B600004E0C968DCF82030DCF8202022F0010213
:101B7000CCF82020DCF8182022F0F00242EA011113
:101B800023F00A0242EA0E02CCF81810CCF820200A
:101B9000DCF8081041F0570121F020015FE000BFA0
:101BA000202B01D0302B5CD1DCF8081021F0700123
:101BB000194341F0070152E0D1F804E0C968DCF8AC
:101BC000203023F01003CCF82030DCF81830DCF89B
:101BD000202023F4704322F0A00243EA013142EABC
:101BE0000E12CCF81810CCF82020DCF8081041F0C8
:101BF000670121F0100132E0D1E901E3C968DCF8A6
:101C0000082043EA0E0322F47F4243EA01211143F4
:101C1000CCF80810DCF8081041F480411FE000BF48
:101C2000D1F804E0C968DCF82030DCF8202022F08C
:101C30000102CCF82020DCF8182022F0F00242EA61
:101C4000011123F00A0242EA0E02CCF81810CCF877
:101C50002020DCF8081041F0470121F03001CCF8D9
:101C600008100121002280F83D1080F83C20104629
:101C700080BD0000002804BF0120704710B5044655
:101C800090F83D0028B9002084F83C00204600F080
:101C900061F8242084F83D002068D4E90212C3686A
:101CA00023F40053C360036923F440531A430261D1
:101CB000D4E904231143C268194341F20C639A43E7
:101CC0001143C1604169A26921F44071114343F697
:101CD0000002C4F201029042416103D0FFF7CCFB45
:101CE00002E000BFFFF7DCFB626819214843910066
:101CF000B0FBF1F048F21F51C5F2EB11A0FB01233C
:101D00005A094FF69C73C0F6FF7302FB030032239F
:101D100003EB0010A0FB0101F02303EA511320683C
:101D200003EB0212C1F3431111448160016921F4F4
:101D300090410161416921F02A014161C16841F48A
:101D40000051C16000202021206484F83D1084F8F7
:101D50003E1010BD70B586B040F60004C4F2010418
:101D6000006804F5405100268842049602D006B06F
:101D700070BD00BF41F21800C4F20200016802AD5C
:101D800041F480410160016801F4804101910199B1
:101D9000016841F0040101600068294600F0040078
:101DA000019001984FF400700290022003900320EC
:101DB00005902046FEF7E0FE4FF48060CDE9020674
:101DC000204629460496FEF7D7FE06B070BD0000F7
:101DD0002DE9F041044690F83D0020280ED10D4633
:101DE00000294FF0010000F08E801646002A08BF3F
:101DF000BDE8F08194F83C00012803D10220BDE841
:101E0000F08100BF012084F83C00002020642120E4
:101E1000984684F83D00FEF7C9FFA684E684A168D1
:101E20000646B1F5805F03D12069002800F0A0804C
:101E30002F460025002084F83C00E08CE0B118F12A
:101E400001001BD0B8F1000F60D120680BE000BF8B
:101E500035F8021B00276FF35F214160E18C0139E7
:101E6000E184E18C51B3016809066DD5002FEFD0F4
:101E700017F8011BF1E700BF20681FE0206802E0AF
:101E80000168090609D40168090606D40168090633
:101E90005CBF01685FEA0161F2D51FB117F8011B51
:101EA00005E000BF35F8021B00276FF35F2141609A
:101EB000E18C0139E184E18C0029E4D10168490613
:101EC0001DD4B8F1000F3FD018F101010ED1016807
:101ED000490614D4016849065CBF01685FEA4161A4
:101EE0000DD401684906F2D509E000BFFEF75EFF98
:101EF000811B2068414527D800684006F6D5202080
:101F000084F83D000020BDE8F08100BF206800BFDC
:101F10000168090606D4FEF749FF811B2068414588
:101F2000F6D911E017B117F8011B04E035F8021BD0
:101F300000276FF35F214160E18C0139E184E18C7E
:101F40000029E5D1BAE700BFC16821F4D071C160B2
:101F5000416921F001014161202084F83D0084F8AD
:101F60003E00002084F83C000320BDE8F08100BF63
:101F700000275FE770B50446002550B1264600BF34
:101F800000F010F801462846FEF7CCF8013E054661
:101F9000F6D12046FEF794FA01462846FEF74CF9A2
:101FA00070BD0000B0B540F60044C4F20104204604
:101FB00001210122FEF7F4FE1420FEF7AFFD2046BA
:101FC00001210022FEF7ECFE20460221FEF7E2FE90
:101FD0000028F9D040F28C05C2F2000528680021E3
:101FE00041622846FFF72EFD20460221FEF7D2FE71
:101FF0000028F9D12846FFF759FD2868406AFEF706
:1020000075FA0023C4F24D030022FEF7C5F9FEF76E
:10201000A7FAB0BD80B501F08BF940F23001C2F2F1
:1020200000010A68131A38BF831A48F21F50C5F21C
:10203000EB10A3FB00025009486080BDFEE70000E2
:102040002DE9F04381B00446006890460268099D7E
:1020500042F4807202604269089E9946D2070F4698
:102060001DD1711C11D0002E00F0D280FEF79EFE13
:10207000401BB04200F2CE8020684169C907F5D00C
:102080000DE000BF4169C90709D14169C90706D1FF
:102090004169C90704BF41695FEAC171F2D007F025
:1020A000FE0101614169890738D44169721C01F45C
:1020B000806111D049BB002E00F0E880FEF776FE6B
:1020C000401BB04200F2E48020684169890725D4B2
:1020D00041694905F2D518E0B9B9416989071DD4AC
:1020E0004169490511D44169890717D441694905F6
:1020F0000BD44169890711D44169490505D4416967
:1021000089070BD441694905E7D5016841F400719D
:1021100001606FF4806141610420BAE00021009108
:10212000014651F8142F00924A680092009A0A68FA
:1021300012061ED4002E00F08580721C4DD10A6854
:10214000520500F187800A68120612D40A68520507
:1021500000F180800A6812060BD40A68520579D40F
:102160000A68120605D40A68520573D40A68120672
:10217000E5D5B9F1010F43D04FEA182101610146BD
:1021800051F8142F12063BD4002E5BD0721C29D1BB
:102190000A6852055ED40A68120631D40A685205EC
:1021A00058D40A6812062BD40A68520552D40A6819
:1021B000120625D40A6852054CD40A681206E7D5DF
:1021C0001EE000BFFEF7F2FD401BB0423FD8206882
:1021D000014651F8142F1206CBD408684005F1D5FA
:1021E00038E000BF0868400534D4FEF7DFFD401B2F
:1021F000B0422CD82068014651F8142F1206F1D5B0
:102200005FFA88F10161002001B0BDE8F08300BFF2
:10221000FEF7CCFD00202021206384F83D1084F8D7
:102220003E00216C41F020012164216884F83C00CB
:102230000868C00544BF4FF400702064032001B05B
:10224000BDE8F0830868400504D4FEF7AFFD202008
:1022500004E000BF6FF480600860042000212022A9
:10226000216384F83D2084F83E10226C10432064E2
:1022700084F83C10206C042817D12068016841F4D0
:1022800000710160012001B0BDE8F083FEF78EFD12
:10229000202000212022216384F83D2084F83E1074
:1022A000226C1043206484F83C10012001B0BDE88A
:1022B000F083000070B50368044653F8140F40071C
:1022C00037D40E46F1B1701C24D100BF1868400508
:1022D00032D4186840072CD4186840052CD41868EC
:1022E000400726D41868400526D41868400720D433
:1022F0001868400520D4186840074FF0000048BF18
:1023000070BDE3E71868400516D4FEF74FFD2020A6
:1023100016E000BF154600BF186840050CD4FEF754
:1023200045FD401BB042F2D8236853F8140F400714
:10233000F2D5002070BD00BF6FF4806018600420EB
:1023400000212022216384F83D2084F83E10226C75
:1023500010432064012084F83C1070BD2DE9F04743
:1023600086B04FF0000841F21800CDF81480C4F296
:102370000200016840F6000641F0100101600168AA
:10238000C4F2010601F010010191019901680022D7
:1023900041F020010160016801F0200101910199E3
:1023A000016841F004010160016801F0040101913C
:1023B0000199016841F0080101600068E02100F026
:1023C0000800019001983046FEF7EAFC06F58064AB
:1023D00020464BF631410022FEF7E2FC02AD012718
:1023E0004FF0020930462946CDE90278CDF8109029
:1023F000FEF7C2FB1E20CDE90208304629460497AD
:10240000FEF7BAFB2020CDE902074FF0030A304661
:1024100029460497CDF814A0FEF7AEFBC02002A910
:1024200081E8810630462946FEF7A6FB43F6314097
:1024300002A981E8810620462946FEF79DFB204639
:102440002946CDE90298CDF81080FEF795FB4FF4B0
:102450008040CDE90208204629460497FEF78CFB10
:102460004FF4004002A981E8810520462946FEF785
:1024700083FB06B0BDE8F08780B540F2380045F236
:102480000041C2F20000C4F2000148F2A062002341
:102490004FF4804CC0F2010280E80E00C0E9033C1A
:1024A000C0E90533C0E90733FEF786FC002808BF02
:1024B00080BDBDE88040FEF717BB000080B586B048
:1024C00040F28C0042F600420021C2F20000C4F249
:1024D000010247234FF6FF7C0591CDE90311CDE9B9
:1024E0000011C0E90023C0E9021CC0E904118161A8
:1024F000FFF718FA002818BFFEF7F6FA4FF48050DD
:10250000029040F28C00C2F2000002A9FFF7E8FA44
:10251000002818BFFEF7E8FA40F28C00C2F2000073
:102520006946FFF7C1F9002818BFFEF7DDFA06B0CB
:1025300080BD000080B540F2D40043F60001C2F235
:102540000000C4F2010100234FF00C0C4FF4E13203
:1025500080E80E00C0E90333C0E905C3C361FFF79B
:1025600089FB002808BF80BDBDE88040FEF7BCBAEB
:10257000FEE70000FEE700002DE9F04F85B040F2D5
:10258000380400254FF480760127C2F200040DF1D3
:10259000120B0DF113084FF0000900BF09F1B00054
:1025A0008DF8100004A8CDE900072046782100220C
:1025B00001230296FEF7BCFC0DF11100CDE90007E6
:1025C00020467821002201238DF811500296FEF753
:1025D000AFFC10208DF81200204678210022012344
:1025E000CDE900B70296FEF7A3FC4FF0000A00BF4A
:1025F00020467821402201238DF81350CDE9008731
:102600000296FEF795FC0AF101004FFA80FABAF142
:10261000FF3FEDDCB9F1070F09F10109BED305B0A9
:10262000BDE8F08F80B5C820FEF764FABDE88040B1
:1026300000F01ABB2DE9F04F89B040B20D46A2F16F
:102640002001002820EAE0724FF0100748BF023551
:10265000A5F1500047EA121402F00F07102BCEB27A
:1026600040F03A8140F238088DF818004FF0010B25
:1026700006A8C2F200084FF48079CDE9000B40466D
:10268000782100220123CDF80890FEF751FC0DF1CE
:102690001900CDE9000B40467821002201238DF876
:1026A0001940CDF80890FEF743FC0DF11A00CDE972
:1026B000000B40467821002201238DF81A70CDF8D6
:1026C00008904FF48079FEF733FC43F282613001C9
:1026D000C0F60001085C01EB06168DF81B0005979B
:1026E0000DF11B074046782140220123CDE9007BF4
:1026F000CDF80890FEF71CFC7078317996F802A0AE
:10270000049496F8039003918DF81B0040467821BD
:10271000402201234FF48074CDE9007B0294FEF740
:1027200007FC40467821402201234FF480748DF845
:102730001BA0CDE9007B0294FEF7FAFB404678210E
:10274000402201238DF81B90CDE9007B0294FEF717
:10275000EFFB039878218DF81B00404640220123AF
:10276000CDE9007B0294FEF7E3FB707978218DF8C8
:102770001B00404640220123CDE9007B0294FEF776
:10278000D7FBB07978218DF81B0040464022012309
:10279000CDE9007B0294FEF7CBFBF07978218DF830
:1027A0001B00404640220123CDE9007B0294FEF746
:1027B000BFFBA5F14F008DF81C0007A8CDE9000B69
:1027C00040467821002201230294FEF7B1FB0498D1
:1027D00078218DF81D000DF11D00CDE9000B40465C
:1027E000002201230294FEF7A3FB059878218DF8BF
:1027F0001E000DF11E00CDE9000B40460022012312
:102800000294FEF795FB307A0DF11F058DF81F003D
:102810004046782140220123CDE9005B0294FEF777
:1028200087FB707A78218DF81F00404640220123F3
:10283000CDE9005B0294FEF77BFBB07A78218DF83E
:102840001F00404640220123CDE9005B0294FEF7C1
:102850006FFBF07A78218DF81F004046402201235B
:10286000CDE9005B0294FEF763FB307B78218DF8A5
:102870001F00404640220123CDE9005B0294FEF791
:1028800057FB707B78218DF81F00404640220123C2
:10289000CDE9005B02944FF48074FEF749FBB07BF6
:1028A00078218DF81F00404640220123CDE9005BCE
:1028B00002944FF48074FEF73BFBF07BCDE9005BA4
:1028C0008DF81F0040467821402201230294FEF734
:1028D0002FFB09B0BDE8F08F40F2380B8DF82000D7
:1028E0004FF0010A08A8C2F2000B4FF48078CDE93E
:1028F000000A5846782100220123CDF80880FEF70F
:1029000017FB0DF12100CDE9000A5846782100227D
:1029100001238DF82140CDF80880FEF709FB0DF169
:102920002200CDE9000A58467821002201238DF8C3
:102930002270CDF80880FEF7FBFA43F25A4106EB0D
:102940004600C0F6000111F8102001EB40058DF89B
:1029500023200DF123065846782140220123CDE99A
:10296000006ACDF80880FEF7E3FA6878AF78EC7873
:1029700095F804908DF823005846782140220123D1
:10298000CDE9006ACDF80880FEF7D2FA58467821E2
:10299000402201238DF82370CDE9006ACDF808802C
:1029A000FEF7C6FA58467821402201238DF82340CD
:1029B000CDE9006ACDF80880FEF7BAFA58467821CA
:1029C000402201238DF82390CDE9006ACDF80880DC
:1029D000FEF7AEFA687978218DF823005846402238
:1029E0000123CDE9006ACDF80880FEF7A1FA09B00D
:1029F000BDE8F08F2DE9F04F87B00646A1F15000F9
:102A000040F238058DF81400012705A8C2F2000530
:102A1000144604914FF4807ACDE9000728467821C6
:102A200000220123CDF808A0FEF782FA300900F158
:102A300010080DF11500CDE9000728467821002285
:102A400001238DF81580CDF808A0FEF771FA0DF17D
:102A5000160006F00F0BCDE900072846782100226A
:102A600001238DF816B0CDF808A0FEF761FA43F601
:102A70006241C4EB0420C0F6000101EB40064FF0B8
:102A8000FF340DF1170900BF3019407878218DF817
:102A90001700284640220123CDE90097CDF808A071
:102AA000FEF746FA01341F2CEED1049840F23804A8
:102AB0004F388DF818004FF0010A06A8C2F2000442
:102AC0004FF48079CDE9000A2046782100220123C5
:102AD000CDF80890FEF72CFA0DF11900CDE9000AA7
:102AE00020467821002201238DF81980CDF8089026
:102AF000FEF71EFA0DF11A00CDE9000A20467821F2
:102B0000002201238DF81AB0CDF80890FEF710FAD4
:102B1000FE250DF11B0700BF7019407878218DF854
:102B20001B00204640220123CDE9007ACDF8089011
:102B3000FEF7FEF90135B5F58F7FEDD107B0BDE8A1
:102B4000F08F00002DE9F04F85B0002B0491039029
:102B50007CD00E981C464508981E00905842174697
:102B6000591E4FF000085FFA80FB42F210790026F0
:102B70004FF0000A0291019212E000BF0126039972
:102B800040F0300205FB08110E9BC8B20499D2B286
:102B9000FFF750FD08F10108A0450AF1010A55D0E0
:102BA0006FEA0A00C0B2584502D101202AE000BFF6
:102BB00000996FEA0800A1EB0801C9B2032900EBF4
:102BC000040101D2012009E001F0FC0200230120F0
:102BD0000433DFB2974200FB09F0F9D1019F11F0F5
:102BE00003010FD0012903D100EB8000400009E070
:102BF0004FF47A72424302294FF0640108BF00FB90
:102C000001F21046B7FBF0F04CF6CD41CCF6CC41CA
:102C1000A0FB0112D10801EB8101002EA0EB4100C5
:102C2000ADD102994145AADD0028A7D103980499A6
:102C300005FB08000E9BC0B22022FFF7FBFC00261C
:102C400008F10108A0450AF1010AA9D105B0BDE8C3
:102C5000F08F00007047000070470000FEF788BA50
:102C600070470000FEE70000F0B583B040F2380482
:102C700040F20C07C2F200044FF480750126C2F244
:102C800000072046782100220123CDE90076029535
:102C9000FEF74EF9781CCDE9000620467821002287
:102CA00001230295FEF744F9B81CCDE90006204641
:102CB0007821002201230295FEF73AF9F81CCDE9AC
:102CC000000620467821002201230295FEF730F904
:102CD000381DCDE900062046782100220123029507
:102CE000FEF726F9781DCDE900062046782100225E
:102CF00001230295FEF71CF9B81DCDE90006204618
:102D00007821002201230295FEF712F9F81DCDE982
:102D1000000620467821002201230295FEF708F9DB
:102D200007F10800CDE900062046782100220123A2
:102D30000295FEF7FDF807F10900CDE900062046EF
:102D40007821002201230295FEF7F2F807F10A002C
:102D5000CDE9000620467821002201230295FEF7E6
:102D6000E7F807F10B00CDE90006204678210022A4
:102D700001230295FEF7DCF807F10C00CDE900060F
:102D800020467821002201230295FEF7D1F807F1B1
:102D90000D00CDE90006204678210022012302958E
:102DA000FEF7C6F807F10E00CDE9000620467821AF
:102DB000002201230295FEF7BBF807F10F00CDE9D1
:102DC000000620467821002201230295FEF7B0F884
:102DD00007F11000CDE900062046782100220123EA
:102DE0000295FEF7A5F807F11100CDE9000620468F
:102DF0007821002201230295FEF79AF807F11200CC
:102E0000CDE9000620467821002201230295FEF735
:102E10008FF807F11300CDE9000620467821002243
:102E200001230295FEF784F807F11400CDE90006AE
:102E300020467821002201230295FEF779F807F158
:102E40001500CDE9000620467821002201230295D5
:102E5000FEF76EF807F11600CDE90006204678214E
:102E6000002201230295FEF763F807F11700CDE970
:102E7000000620467821002201230295FEF758F82B
:102E800007F11800CDE90006204678210022012331
:102E90000295FEF74DF807F11900CDE9000620462E
:102EA0007821002201230295FEF742F807F11A006B
:102EB000CDE9000620467821002201230295FEF785
:102EC00037F803B0F0BD000010B540F60044C4F27E
:102ED0000104204610210122FDF762FF20464FF435
:102EE00080510022BDE81040FDF75ABF10B540F6F2
:102EF0000004C4F20104204640210122FDF750FFE6
:102F000004F580604FF480610022BDE81040FDF7B9
:102F100047BF000080B582B0019040F2D400C2F2F9
:102F2000000001A901224FF6FF73FEF751FF01983F
:102F300002B080BD90B0FEF729F900240120CDE950
:102F40000B44CDE9094406900A904FF4E0104FF489
:102F5000803102250F9006A8CDE90714CDE90D5167
:102F6000FEF7B2FA20B1EFF3108072B6FEE700BFB1
:102F70000F20CDE901054FF48060CDE9040401A8DC
:102F800002210394FEF798F920B1EFF3108072B696
:102F9000FEE700BF40F60006C4F20106FFF7DEF9C7
:102FA000FFF76AFAFFF78AFAFFF7C4FAFFF73AFB6E
:102FB000FFF7E2FA1020002100224FF010084FF036
:102FC0000009FFF717FD202000210122FFF712FD65
:102FD000302000210222FFF70DFD402000210322B6
:102FE000FFF708FD502000210422FFF703FD6020B9
:102FF00000210522FFF7FEFC002002210622FFF738
:10300000F9FC102002210722FFF7F4FC2020022106
:103010000822FFF7EFFC302002210922FFF7EAFC2B
:10302000402002213A221023FFF704FB0020042154
:103030000622FFF7DFFC102004210722FFF7DAFC4D
:10304000202004210A22FFF7D5FC302004210B2286
:10305000FFF7D0FC402004213A221023FFF7EAFAC0
:10306000002006210622FFF7C5FC102006210722BA
:10307000FFF7C0FC202006210C22FFF7BBFC30200C
:1030800006210D22FFF7B6FC402006213A2210232C
:10309000FFF7D0FA0024C4F2F01401E000F09CF92C
:1030A00030460421FDF776FE20B93220FDF722FDDF
:1030B00009F101090520FEF75DFF01462046FDF7F5
:1030C00083F88346FDF71FFAC7B23846FDF7EFF9DC
:1030D00001465846FDF778F80026C4F2201631461E
:1030E000FDF778F8FDF70FFA0546482002213A4629
:1030F0000223CDF80080FFF725FD582002212E2263
:103100001023FFF797FA602002212A460123CDF809
:103110000080FFF717FD6820022163221023FFF7CC
:1031200089FA702002216D221023FFF783FAFDF740
:1031300043FB8246FDF7E7F90546FDF7B8F901467E
:103140005046FDF741F83146FDF744F8FDF7DBF94D
:103150000746EAB2482004210223CDF80080FFF799
:10316000F1FC582004212E221023FFF763FA60207F
:1031700004213A460123CDF80080FFF7E3FC6820E4
:10318000042143221023FFF755FAFEF743FFFDF712
:1031900097F9FDF7D1F90246482006210423CDF81E
:1031A0000080FFF7CFFC6820062167221023FFF77D
:1031B00041FA5FEAC97011D15AA000F02FF97820C6
:1031C000062141221023FFF735FA50462146FDF72C
:1031D00052F9002844D100F0EDF84BE043A000F094
:1031E0001DF97820062148221023FFF723FA40F624
:1031F0000006C4F2010630460221FDF7CBFD00288F
:1032000052D030461021FDF7C5FD002856D030467B
:103210000821FDF7BFFD00285AD03046402100228A
:10322000FDF7BEFD304680210022FDF7B9FD06F511
:10323000806528464FF480610022FDF7B1FD2846E5
:103240004FF400610022FDF7ABFD2846102100225B
:10325000FDF7A6FD284620210022FDF7A1FD1FE76E
:1032600000215046C4F2A011FDF713F9002808BF51
:10327000FFF72AFE00215846C4F2A011FDF7FBF823
:1032800040F600060028C4F201063FF407AF002113
:103290005846C4F22011FDF7FCF800287FF400AF77
:1032A000FFF724FEFCE600BF3220FDF723FCFFF70A
:1032B0001DFE19A000F0B2F8F2E600BF3220FDF7C3
:1032C00019FC00F089F810A000F0A8F8E8E600BFAB
:1032D0003220FDF70FFC06F5806010210122FDF77A
:1032E0005FFD05A000F09AF8DAE600BF48616E6461
:1032F000204D6F64652100004C454420496E64698F
:1033000063617465210000005375627472616374B7
:1033100020576174657221004164642057617465AF
:10332000722100004175746F204D6F6465210000AB
:1033300070B540F600440A20C4F20104FDF7DAFB40
:1033400020464FF400410022FDF72AFD20464FF4AD
:103350008041FDF71FFD0028F8D10026002500BFA1
:1033600020464FF400410122FDF71AFD20464FF49C
:1033700080416D00FDF70EFD002820464FF400410E
:103380004FF0000218BF0135FDF70AFD172E06F1B8
:103390000106E5D320464FF400410122FDF700FD70
:1033A00020464FF40041002285F40005FDF7F8FCAB
:1033B000284670BD10B540F60044C4F20104204612
:1033C00020210122FDF7ECFC20464FF400510022A1
:1033D000BDE81040FDF7E4BC10B540F60004C4F2AF
:1033E0000104204680210122FDF7DAFC04F580600B
:1033F0004FF400610022BDE81040FDF7D1BC02E0AF
:1034000008C8121F08C1002AFAD17047704700206F
:1034100001E001C1121F002AFBD1704710B504461C
:1034200001E0FFF777FD14F8010B04490028F8D1FB
:10343000BDE810400A20FFF76DBD0000000000202D
:103440000102000000000000000001020304060762
:103450000809000000000102030400000000000051
:103460000000002F000000000700070000147F1478
:103470007F1400242A7F2A12006264081323003676
:103480004955225000000503000000001C224100A5
:10349000000041221C000014083E08140008083EE9
:1034A0000808000000A060000008080808080000E4
:1034B00060600000002010080402003E5149453EB3
:1034C0000000427F400000426151494600214145D1
:1034D0004B31001814127F10002745454539003C38
:1034E0004A49493000017109050300364949493606
:1034F00000064949291E00003636000000005636F5
:1035000000000008142241000014141414140000D8
:103510004122140800020151090600324959513E66
:10352000007C1211127C007F49494936003E41411E
:103530004122007F4141221C007F49494941007FCF
:1035400009090901003E4149497A007F0808087FBE
:103550000000417F4100002040413F01007F0814EE
:103560002241007F40404040007F020C027F007FEC
:103570000408107F003E4141413E007F09090906D1
:10358000003E4151215E007F091929460046494904
:1035900049310001017F0101003F4040403F001FD1
:1035A0002040201F003F4038403F00631408146350
:1035B00000070870080700615149454300007F413A
:1035C000410000552A552A55000041417F00000462
:1035D000020102040040404040400000010204009B
:1035E000002054545478007F484444380038444400
:1035F000442000384444487F00385454541800088C
:103600007E0901020018A4A4A47C007F08040478A9
:103610000000447D4000004080847D00007F102831
:1036200044000000417F4000007C04180478007CC6
:103630000804047800384444443800FC2424241846
:103640000018242418FC007C080404080048545482
:10365000542000043F444020003C4040207C001C9B
:103660002040201C003C4030403C004428102844AE
:10367000001CA0A0A07C004464544C4414141414F6
:103680001414000000000000000000000000000012
:103690000000000000F800000000000000333000CF
:1036A000000000100C06100C0600000000000000D6
:1036B000000040C07840C0784000043F04043F044C
:1036C0000400007088FC08300000001820FF211E54
:1036D0000000F008F000E018000000211C031E218B
:1036E0001E0000F00888700000001E212324192706
:1036F000211010160E000000000000000000000065
:103700000000000000E0180402000000000718207C
:10371000400000020418E0000000004020180700EC
:103720000000404080F0804040000202010F010292
:103730000200000000F0000000000101011F010173
:103740000100000000000000000080B070000000D8
:103750000000000000000000000000010101010164
:1037600001010000000000000000003030000000F7
:1037700000000000000080601804006018060100CE
:10378000000000E010080810E000000F10202010DA
:103790000F00001010F8000000000020203F202043
:1037A00000000070080808887000003028242221DA
:1037B0003000003008888848300000182020201190
:1037C0000E000000C02010F8000000070424243F71
:1037D000240000F80888880808000019212020111A
:1037E0000E0000E0108888180000000F1120201142
:1037F0000E0000380808C83808000000003F00002C
:1038000000000070880808887000001C2221212216
:103810001C0000E010080810E00000003122221116
:103820000F00000000C0C0000000000000303000A9
:103830000000000000800000000000008060000028
:103840000000000080402010080000010204081061
:103850002000404040404040400004040404040470
:10386000040000081020408000000020100804021E
:103870000100007048080808F00000000030360120
:103880000000C030C828E810E000071827242314DF
:103890000B000000C038E0000000203C230202279B
:1038A000382008F8888888700000203F20202011E8
:1038B0000E00C03008080808380007182020201023
:1038C000080008F808080810E000203F2020201019
:1038D0000F0008F88888E8081000203F20202320E7
:1038E000180008F88888E8081000203F200003002E
:1038F0000000C03008080838000007182020221EE9
:10390000020008F808000008F808203F2101012102
:103910003F20000808F8080800000020203F202071
:10392000000000000808F8080800C08080807F00C0
:10393000000008F888C028180800203F2001263819
:10394000200008F8080000000000203F2020202070
:10395000300008F8F800F8F80800203F003F003F6A
:10396000200008F830C00008F808203F20000718A1
:103970003F00E01008080810E0000F102020201081
:103980000F0008F808080808F000203F2101010195
:103990000000E01008080810E0000F182424385038
:1039A0004F0008F8888888887000203F2000030CAA
:1039B00030200070880808083800003820212122B3
:1039C0001C00180808F8080818000000203F200014
:1039D000000008F808000008F808001F2020202038
:1039E0001F000878880000C83808000007380E015A
:1039F0000000F80800F80008F800033C0700073C46
:103A00000300081868808068180820302C03032CF5
:103A100030200838C800C83808000000203F2000C7
:103A2000000010080808C838080020382621202087
:103A30001800000000FE020202000000007F40406B
:103A40004000000C30C000000000000000010638FB
:103A5000C00000020202FE000000004040407F0063
:103A60000000000004020202040000000000000048
:103A70000000000000000000000080808080808046
:103A8000808000020204000000000000000000002E
:103A90000000000080808080000000192422222283
:103AA0003F2008F8008080000000003F1120201116
:103AB0000E000000008080800000000E11202020F9
:103AC0001100000000808088F800000E11202010F6
:103AD0003F200000808080800000001F22222222E0
:103AE0001300008080F0888888180020203F202064
:103AF00000000000808080808000006B949494938C
:103B0000600008F8008080800000203F2100002035
:103B10003F2000809898000000000020203F2020D7
:103B20000000000000809898000000C08080807F26
:103B3000000008F8000080808000203F24022D3023
:103B40002000000808F8000000000020203F20208E
:103B500000008080808080808000203F20003F2007
:103B6000003F8080008080800000203F21000020F6
:103B70003F200000808080800000001F2020202047
:103B80001F00808000808000000080FFA1202011A5
:103B90000E000000008080808000000E112020A018
:103BA000FF80808080008080800020203F212000D6
:103BB00001000000808080808000003324242424C1
:103BC0001900008080E0808000000000001F20209D
:103BD00000008080000000808000001F2020201056
:103BE0003F20808080000080808000010E30080629
:103BF000010080800080008080800F300C030C303A
:103C00000F0000808000808080000020312E0E3167
:103C10002000808080000080808080818E70180667
:103C2000010000808080808080000021302C2221D3
:103C3000300000000000807C020200000000003F15
:103C400040400002027C800000000040403F000035
:103C5000000000000000FF00000000000000FF0066
:103C600000001060028C0084E41C05C6BC2424E41F
:103C70000400000000000000000000000000000040
:103C80000000000000000000000000000000000034
:103C90000000000000000000000000000000000024
:103CA0000000000000000000000000000000000014
:103CB0000000000000000000000000000000000004
:103CC00000000000000000000000000000000000F4
:103CD00000000000000000000000000000000000E4
:103CE00000000000000000000000000000000000D4
:103CF00000000000000000000000000000000000C4
:103D000000000000000000000000000000000000B3
:103D100000000000000000000000000000000000A3
:103D20000000000000000000000000000000000093
:103D30000000000000000000000000000000000083
:103D40000000000000000000000000000000000073
:103D50000000000000000000000000000000000063
:103D60000004047E010000FF82412618294681805C
:103D70000000000000000000000000000000000043
:103D80000000000000000000000000000000000033
:103D90000000000000000000000000000000000023
:103DA0000000000000000000000000000000000013
:103DB0000000000000000000000000000000000003
:103DC00000000000000000000000000000000000F3
:103DD00000000000000000000000000000000000E3
:103DE00000000000000000000000000000000000D3
:103DF00000000000000000000000000000000000C3
:103E000000000000000000000000000000000000B2
:103E100000000000000000000000000000000000A2
:103E20000000000000000000000000000000000092
:103E30000000000000000000000000000000000082
:103E40000000000000000000000000000000000072
:103E50000000000000000000000000000000000062
:103E60000000FE0282828282FA82828282820200C4
:103E70000000000000000000000000000000000042
:103E80000000000000000000000000000000000032
:103E90000000000000000000000000000000000022
:103EA0000000000000000000000000000000000012
:103EB0000000000000000000000000000000000002
:103EC00000000000000000000000000000000000F2
:103ED00000000000000000000000000000000000E2
:103EE00000000000000000000000000000000000D2
:103EF00000000000000000000000000000000000C2
:103F000000000000000000000000000000000000B1
:103F100000000000000000000000000000000000A1
:103F20000000000000000000000000000000000091
:103F30000000000000000000000000000000000081
:103F40000000000000000000000000000000000071
:103F500000000000000000000000000000000080E1
:103F6000601F40404040407F404044584040000077
:103F70000000000000000000000000000000000041
:103F80000000000000000000000000000000000031
:103F90000000000000000000000000000000000021
:103FA0000000000000000000000000000000000011
:103FB0000000000000000000000000000000000001
:103FC00000000000000000000000000000000000F1
:103FD00000000000000000000000000000000000E1
:103FE00000000000000000000000000000000000D1
:103FF00000000000000000000000000000000000C1
:1040000000000000000000000000000000000000B0
:1040100000000000000000000000000000000000A0
:104020000000000000000000000000000000000090
:104030000000000000000000000000000000000080
:104040000000000000000000000000000000000070
:104050000000000000000000000000000000101040
:1040600010FF9020984828090E2848A81800000042
:104070000000000000000000000000000000000040
:104080000000000000000000000000000000000030
:104090000000000000000000000000000000000020
:1040A0000000000000000000000000000000000010
:1040B0000000000000000000000000000000000000
:1040C00000000000000000000000000000000000F0
:1040D00000000000000000000000000000000000E0
:1040E00000000000000000000000000000000000D0
:1040F00000000000000000000000000000000000C0
:1041000000000000000000000000000000000000AF
:10411000000000000000000000000000000000009F
:10412000000000000000000000000000000000008F
:10413000000000000000000000000000000000007F
:10414000000000000000000000000000000000006F
:10415000000000000000000000000000000242819A
:104160007F0040404242427E424242400000000006
:10417000000000000000000000000000000000003F
:10418000000000000000000000000000000000002F
:10419000000000000000000000000000000000001F
:1041A000000000000000000000000000000000000F
:1041B00000000000000000000000000000000000FF
:1041C00000000000000000000000000000000000EF
:1041D00000000000000000000000000000000000DF
:1041E00000000000000000000000000000000000CF
:1041F00000000000000000000000000000000000BF
:1042000000000000000000000000000000000000AE
:10421000000000000000000000000000000000009E
:10422000000000000000000000000000000000008E
:10423000000000000000000000000000000000007E
:10424000000000000000000000000000000000006E
:1042500000000000000000000000000040504E4838
:1042600048FF48484840F80000FF000000000000F8
:10427000000000000000000000000000000000003E
:10428000000000000000000000000000000000002E
:10429000000000000000000000000000000000001E
:1042A000000000000000000000000000000000000E
:1042B00000000000000000000000000000000000FE
:1042C00000000000000000000000000000000000EE
:1042D00000000000000000000000000000000000DE
:1042E00000000000000000000000000000000000CE
:1042F00000000000000000000000000000000000BE
:1043000000000000000000000000000000000000AD
:10431000000000000000000000000000000000009D
:10432000000000000000000000000000000000008D
:10433000000000000000000000000000000000007D
:10434000000000000000000000000000000000006D
:10435000000000000000000000000000003E02021B
:10436000FF12221E000F40807F00000000000000AE
:10437000000000000000000000000000000000003D
:10438000000000000000000000000000000000002D
:10439000000000000000000000000000000000001D
:1043A000000000000000000000000000000000000D
:1043B00000000000000000000000000000000000FD
:1043C00000000000000000000000000000000000ED
:1043D00000000000000000000000000000000000DD
:1043E00000000000000000000000000000000000CD
:1043F00000000000000000000000000000000000BD
:1044000000000000000000000000000000000000AC
:10441000000000000000000000000000000000009C
:10442000000000000000000000000000000000008C
:10443000000000000000000000000000000000007C
:10444000000000000000000000000000000000006C
:1044500000000000000000000000000022322AA638
:10446000A26221110981010000000000000000008B
:10447000000000000000000000000000000000003C
:10448000000000000000000000000000000000002C
:10449000000000000000000000000000000000001C
:1044A000000000000000000000000000000000000C
:1044B00000000000000000000000000000000000FC
:1044C00000000000000000000000000000000000EC
:1044D00000000000000000000000000000000000DC
:1044E00000000000000000000000000000000000CC
:1044F00000000000000000000000000000000000BC
:1045000000000000000000000000000000000000AB
:10451000000000000000000000000000000000009B
:10452000000000000000000000000000000000008B
:10453000000000000000000000000000000000007B
:10454000000000000000000000000000000000006B
:10455000000000000000000000004222130B428215
:104560007E02020A12234600000000000000000044
:10457000000000000000000000000000000000003B
:10458000000000000000000000000000000000002B
:10459000000000000000000000000000000000001B
:1045A000000000000000000000000000000000000B
:1045B00000000000000000000000000000000000FB
:1045C00000000000000000000000000000000000EB
:1045D00000000000000000000000000000000000DB
:1045E00000000000000000000000000000000000CB
:1045F00000000000000000000000000000000000BB
:1046000000000000000000000000000000000000AA
:10461000000000000000000000000000000000009A
:10462000000000000000000000000000000000008A
:10463000000000000000000000000000000000007A
:10464000000000000000000000000000000000006A
:1046500000000000000000002030AC63300088C87B
:10466000A8998E88A8C888000000000000000000FB
:10467000000000000000000000000000000000003A
:10468000000000000000000000000000000000002A
:10469000000000000000000000000000000000001A
:1046A000000000000000000000000000000000000A
:1046B00000000000000000000000000000000000FA
:1046C00000000000000000000000000000000000EA
:1046D00000000000000000000000000000000000DA
:1046E00000000000000000000000000000000000CA
:1046F00000000000000000000000000000000000BA
:1047000000000000000000000000000000000000A9
:104710000000000000000000000000000000000099
:104720000000000000000000000000000000000089
:104730000000000000000000000000000000000079
:104740000000000000000000000000000000000069
:104750000000000000000022672212128040300F8B
:1047600000003F4040710000000000000000000019
:104770000000000000000000000000000000000039
:104780000000000000000000000000000000000029
:104790000000000000000000000000000000000019
:1047A0000000000000000000000000000000000009
:1047B00000000000000000000000000000000000F9
:1047C00000000000000000000000000000000000E9
:1047D00000000000000000000000000000000000D9
:1047E00000000000000000000000000000000000C9
:1047F00000000000000000000000000000000000B9
:1048000000000000000000000000000000000000A8
:104810000000000000000000000000000000000098
:104820000000000000000000000000000000000088
:104830000000000000000000000000000000000078
:104840000000000000000000000000000000000068
:10485000000000000000004042445840407F4040BB
:104860005048C600000000000000000000000000EA
:104870000000000000000000000000000000000038
:104880000000000000000000000000000000000028
:104890000000000000000000000000000000000018
:1048A0000000000000000000000000000000000008
:1048B00000000000000000000000000000000000F8
:1048C00000000000000000000000000000000000E8
:1048D00000000000000000000000000000000000D8
:1048E00000000000000000000000000000000000C8
:1048F00000000000000000000000000000000000B8
:1049000000000000000000000000000000000000A7
:104910000000000000000000000000000000000097
:104920000000000000000000000000000000000087
:104930000000000000000000000000000000000077
:104940000000000000000000000000000000000067
:1049500000000000000040444444444444444444B3
:1049600044FF000000000000000000000000000004
:104970000000000000000000000000000000000037
:104980000000000000000000000000000000000027
:104990000000000000000000000000000000000017
:1049A0000000000000000000000000000000000007
:1049B00000000000000000000000000000000000F7
:1049C00000000000000000000000000000000000E7
:1049D00000000000000000000000000000000000D7
:1049E00000000000000000000000000000000000C7
:1049F00000000000000000000000000000000000B7
:104A000000000000000000000000000000000000A6
:104A10000000000000000000000000000000000096
:104A20000000000000000000000000000000000086
:104A30000000000000000000000000000000000076
:104A40000000000000000000000000000000000066
:104A5000000000000808E8292E28E80808C80C0B08
:104A6000E80808000000000000000000000000004E
:104A70000000000000000000000000000000000036
:104A80000000000000000000000000000000000026
:104A90000000000000000000000000000000000016
:104AA0000000000000000000000000000000000006
:104AB00000000000000000000000000000000000F6
:104AC00000000000000000000000000000000000E6
:104AD00000000000000000000000000000000000D6
:104AE00000000000000000000000000000000000C6
:104AF00000000000000000000000000000000000B6
:104B000000000000000000000000000000000000A5
:104B10000000000000000000000000000000000095
:104B20000000000000000000000000000000000085
:104B30000000000000000000000000000000000075
:104B40000000000000000000000000000000000065
:104B50000000000000FF0949897F00000F40807FAE
:104B60000000000000000000000000000000000045
:104B70000000000000000000000000000000000035
:104B80000000000000000000000000000000000025
:104B90000000000000000000000000000000000015
:104BA0000000000000000000000000000000000005
:104BB00000000000000000000000000000000000F5
:104BC00000000000000000000000000000000000E5
:104BD00000000000000000000000000000000000D5
:104BE00000000000000000000000000000000000C5
:104BF00000000000000000000000000000000000B5
:104C000000000000000000000000000000000000A4
:104C10000000000000000000000000000000000094
:104C20000000000000000000000000000000000084
:104C30000000000000000000000000000000000074
:104C40000000000000000000000000000000000064
:104C5000000000202020A06000FF6080402018009D
:104C60000000000000000000000000000000000044
:104C70000000000000000000000000000000000034
:104C80000000000000000000000000000000000024
:104C90000000000000000000000000000000000014
:104CA0000000000000000000000000000000000004
:104CB00000000000000000000000000000000000F4
:104CC00000000000000000000000000000000000E4
:104CD00000000000000000000000000000000000D4
:104CE00000000000000000000000000000000000C4
:104CF00000000000000000000000000000000000B4
:104D000000000000000000000000000000000000A3
:104D10000000000000000000000000000000000093
:104D20000000000000000000000000000000000083
:104D30000000000000000000000000000000000073
:104D40000000000000000000000000000000000063
:104D500000201008060140807F00010204081010A6
:104D60000000000000000000000000000000000043
:104D70000000000000000000000000000000000033
:104D80000000000000000000000000000000000023
:104D90000000000000000000000000000000000013
:104DA0000000000000000000000000000000000003
:104DB00000000000000000000000000000000000F3
:104DC00000000000000000000000000000000000E3
:104DD00000000000000000000000000000000000D3
:104DE00000000000000000000000000000000000C3
:104DF00000000000000000000000000000000000B3
:104E000000000000000000000000000000000000A2
:104E10000000000000000000000000000000000092
:104E20000000000000000000000000000000000082
:104E30000000000000000000000000000000000072
:104E40000000000000000000000000000000000062
:104E5000008060F80710901011161010D01000009C
:104E60000000000000000000000000000000000042
:104E70000000000000000000000000000000000032
:104E80000000000000000000000000000000000022
:104E90000000000000000000000000000000000012
:104EA0000000000000000000000000000000000002
:104EB00000000000000000000000000000000000F2
:104EC00000000000000000000000000000000000E2
:104ED00000000000000000000000000000000000D2
:104EE00000000000000000000000000000000000C2
:104EF00000000000000000000000000000000000B2
:104F000000000000000000000000000000000000A1
:104F10000000000000000000000000000000000091
:104F20000000000000000000000000000000000081
:104F30000000000000000000000000000000000071
:104F40000000000000000000000000000000000160
:104F50000000FF4040415E4040704E414040000034
:104F60000000000000000000000000000000000041
:104F70000000000000000000000000000000000031
:104F80000000000000000000000000000000000021
:104F90000000000000000000000000000000000011
:104FA0000000000000000000000000000000000001
:104FB00000000000000000000000000000000000F1
:104FC00000000000000000000000000000000000E1
:104FD00000000000000000000000000000000000D1
:104FE00000000000000000000000000000000000C1
:104FF00000000000000000000000000000000000B1
:1050000000000000000000000000000000000000A0
:105010000000000000000000000000000000000090
:105020000000000000000000000000000000000080
:105030000000000000000000000000000000000070
:1050400000000000000000000000000000001060F0
:10505000028C0000FE9292929292FE0000000000EC
:105060000000000000000000000000000000000040
:105070000000000000000000000000000000000030
:105080000000000000000000000000000000000020
:105090000000000000000000000000000000000010
:1050A0000000000000000000000000000000000000
:1050B00000000000000000000000000000000000F0
:1050C00000000000000000000000000000000000E0
:1050D00000000000000000000000000000000000D0
:1050E00000000000000000000000000000000000C0
:1050F00000000000000000000000000000000000B0
:10510000000000000000000000000000000000009F
:10511000000000000000000000000000000000008F
:10512000000000000000000000000000000000007F
:10513000000000000000000000000000000000006F
:105140000000000000000000000000000004047ED9
:1051500001407E42427E427E42427E40000000008C
:10516000000000000000000000000000000000003F
:10517000000000000000000000000000000000002F
:10518000000000000000000000000000000000001F
:10519000000000000000000000000000000000000F
:1051A00000000000000000000000000000000000FF
:1051B00000000000000000000000000000000000EF
:1051C00000000000000000000000000000000000DF
:1051D00000000000000000000000000000000000CF
:1051E00000000000000000000000000000000000BF
:1051F00000000000000000000000000000000000AF
:10520000000000000000000000000000000000009E
:10521000000000000000000000000000000000008E
:10522000000000000000000000000000000000007E
:10523000000000000000000000000000000000006E
:105240000000000000000000000000000000FC243E
:105250002424FC252624FC2424240400000000002F
:10526000000000000000000000000000000000003E
:10527000000000000000000000000000000000002E
:10528000000000000000000000000000000000001E
:10529000000000000000000000000000000000000E
:1052A00000000000000000000000000000000000FE
:1052B00000000000000000000000000000000000EE
:1052C00000000000000000000000000000000000DE
:1052D00000000000000000000000000000000000CE
:1052E00000000000000000000000000000000000BE
:1052F00000000000000000000000000000000000AE
:10530000000000000000000000000000000000009D
:10531000000000000000000000000000000000008D
:10532000000000000000000000000000000000007D
:10533000000000000000000000000000000000006D
:10534000000000000000000000000040308F80845A
:105350004C55252525554C8080800000000000001C
:10536000000000000000000000000000000000003D
:10537000000000000000000000000000000000002D
:10538000000000000000000000000000000000001D
:10539000000000000000000000000000000000000D
:1053A00000000000000000000000000000000000FD
:1053B00000000000000000000000000000000000ED
:1053C00000000000000000000000000000000000DD
:1053D00000000000000000000000000000000000CD
:1053E00000000000000000000000000000000000BD
:1053F00000000000000000000000000000000000AD
:10540000000000000000000000000000000000009C
:10541000000000000000000000000000000000008C
:10542000000000000000000000000000000000007C
:10543000000000000000000000000000000000006C
:10544000000000000000000000000000FE02828258
:105450008282FA82828282820200000000000000C2
:10546000000000000000000000000000000000003C
:10547000000000000000000000000000000000002C
:10548000000000000000000000000000000000001C
:10549000000000000000000000000000000000000C
:1054A00000000000000000000000000000000000FC
:1054B00000000000000000000000000000000000EC
:1054C00000000000000000000000000000000000DC
:1054D00000000000000000000000000000000000CC
:1054E00000000000000000000000000000000000BC
:1054F00000000000000000000000000000000000AC
:10550000000000000000000000000000000000009B
:10551000000000000000000000000000000000008B
:10552000000000000000000000000000000000007B
:10553000000000000000000000000000000000006B
:1055400000000000000000000080601F404040405C
:10555000407F4040445840400000000000000000F0
:10556000000000000000000000000000000000003B
:10557000000000000000000000000000000000002B
:10558000000000000000000000000000000000001B
:10559000000000000000000000000000000000000B
:1055A00000000000000000000000000000000000FB
:1055B00000000000000000000000000000000000EB
:1055C00000000000000000000000000000000000DB
:1055D00000000000000000000000000000000000CB
:1055E00000000000000000000000000000000000BB
:1055F00000000000000000000000000000000000AB
:10560000000000000000000000000000000000009A
:10561000000000000000000000000000000000008A
:10562000000000000000000000000000000000007A
:10563000000000000000000000000000000000006A
:105640000000000000000000001010101010FF10FB
:1056500010101010F000000000000000000000001A
:10566000000000000000000000000000000000003A
:10567000000000000000000000000000000000002A
:10568000000000000000000000000000000000001A
:10569000000000000000000000000000000000000A
:1056A00000000000000000000000000000000000FA
:1056B00000000000000000000000000000000000EA
:1056C00000000000000000000000000000000000DA
:1056D00000000000000000000000000000000000CA
:1056E00000000000000000000000000000000000BA
:1056F00000000000000000000000000000000000AA
:105700000000000000000000000000000000000099
:105710000000000000000000000000000000000089
:105720000000000000000000000000000000000079
:105730000000000000000000000000000000000069
:10574000000000000000000080402018060100203A
:105750004080403F0000000000000000000000000A
:105760000000000000000000000000000000000039
:105770000000000000000000000000000000000029
:105780000000000000000000000000000000000019
:105790000000000000000000000000000000000009
:1057A00000000000000000000000000000000000F9
:1057B00000000000000000000000000000000000E9
:1057C00000000000000000000000000000000000D9
:1057D00000000000000000000000000000000000C9
:1057E00000000000000000000000000000000000B9
:1057F00000000000000000000000000000000000A9
:105800000000000000000000000000000000000098
:105810000000000000000000000000000000000088
:105820000000000000000000000000000000000078
:105830000000000000000000000000000000000068
:1058400000000000000002030405060708090A0B17
:105850000C0D0E0F101000007858000800000020FA
:1058600030000000FE330008A85800083000002077
:10587000F00400000E3400080000000001000000E9
:1058800010000000AE001040B081FFA1A6A83FC8E4
:10589000D300D580D805D9F1DA12D8308D14AF00F5
:0858A0000024F40000000000E8
:04000005080000ED02
:00000001FF
